:060000000A128A11EE2F26
:100A9A00F20072087005F1007108F300730808008B
:100AAA00F20072087004F1007108F300730808007C
:100ABA00F20070087207F1007108F3007308080069
:100ACA003F3406345B344F3466346D347D34073436
:100ADA007F346F347E088A007F0882000A128A11E6
:100AEA006F250A128A118000840A04087D060319F8
:100AFA000034FF0A0319FE0A732DF300730870020B
:100B0A000318882D892D8F2D70087302F100710842
:100B1A00F200942D73087002F1007108F200720855
:100B2A00080083120313AA00203084003130F00039
:100B3A000408F1000A30F2007008840083130008E8
:100B4A00F300F00A7108840073088000F10AF20BBE
:100B5A00A12D2A08203E840000080800F601F31F90
:100B6A00B72DB82DBF2DF209F309F20A0319F30ABA
:100B7A00F601F60AF11FC22DC32DC82DF009F1099D
:100B8A00F00A0319F10A700871040319CD2DCE2D4C
:100B9A00FD2DF501F50ADC2D01300310F00DF10DE4
:100BAA00FF3E031DD22D0130F4007408F507F11F32
:100BBA00DF2DE02DD12D71087302031DE62D70087B
:100BCA007202031CE92DEA2DF02D7008F202710859
:100BDA00031CF303F30201300310F10CF00CFF3E87
:100BEA00031DF12D0130F502031DFC2DFD2DE02D15
:100BFA0076080319012E022E072EF209F309F20ACA
:100C0A000319F30A7308F1007208F0000800F601EC
:100C1A00F11F102E112E182EF009F109F00A0319EE
:100C2A00F10AF601F60AF31F1B2E1C2E252EF209D5
:100C3A00F309F20A0319F30A0130F4007408F606FC
:100C4A00F701F8017008710403192C2E2D2E642E59
:100C5A00F501F50A3B2E01300310F00DF10DFF3EB0
:100C6A00031D312E0130F4007408F507F11F3E2EE2
:100C7A003F2E302E01300310F70DF80DFF3E031DF5
:100C8A00402E71087302031D4C2E70087202031C59
:100C9A004F2E502E572E7008F2027108031CF303D0
:100CAA00F302771401300310F10CF00CFF3E031D20
:100CBA00582E0130F502031D632E642E3F2E76084E
:100CCA000319682E692E6E2EF709F809F70A031917
:100CDA00F80A7808F1007708F00008000730831650
:100CEA0003139F0001308316031385000130870028
:100CFA00860188018312031387010708F90079081E
:100D0A00AB002B08F039F9007908AF002F08F90079
:100D1A0004300310F90CFF3E031D8E2E7908FA00E9
:100D2A007A08AF002B080F39F9007908AC00D52FE3
:100D3A002C08F9007908F0002F080A128A115D259B
:100D4A000A128A11FA007A0883120313B0000A30D1
:100D5A00F0000030F1003008F900FA017908F200D9
:100D6A007A08F3000A128A11B3250A128A11700846
:100D7A00FB007B0883120313AE000A30F000003038
:100D8A00F1003008F900FA017908F2007A08F30054
:100D9A000A128A110C260A128A117008FB007B08B3
:100DAA0083120313AD002D080A128A1196250A121E
:100DBA008A118312031386002E080A128A119625B5
:100DCA000A128A11831203138800772E2C08F9005D
:100DDA007908F0002F080A128A1182250A128A114C
:100DEA00FA007A0883120313B0000A30F0000030C8
:100DFA00F1003008F900FA017908F2007A08F300E4
:100E0A000A128A11B3250A128A117008FB007B089C
:100E1A0083120313AE000A30F0000030F1003008EC
:100E2A00F900FA017908F2007A08F3000A128A1125
:100E3A000C260A128A117008FB007B08831203131E
:100E4A00AD002D080A128A1196250A128A118312F8
:100E5A00031386002E080A128A1196250A128A118D
:100E6A00831203138800772E2C08F9007908F00002
:100E7A002F080A128A1155250A128A11FA007A08CD
:100E8A0083120313B0000A30F0000030F10030087A
:100E9A00F900FA017908F2007A08F3000A128A11B5
:100EAA00B3250A128A117008FB007B088312031308
:100EBA00AE000A30F0000030F1003008F900FA0103
:100ECA007908F2007A08F3000A128A110C260A122B
:100EDA008A117008FB007B0883120313AD002D08EA
:100EEA000A128A1196250A128A118312031386009E
:100EFA002E080A128A1196250A128A1183120313DE
:100F0A008800772E2C08F9007908F0002F080A12B9
:100F1A008A114D250A128A11FA007A0883120313DC
:100F2A00B0000A30F0000030F1003008F900FA0190
:100F3A007908F2007A08F3000A128A11B3250A1214
:100F4A008A117008FB007B0883120313AE000A3073
:100F5A00F0000030F1003008F900FA017908F200D7
:100F6A007A08F3000A128A110C260A128A117008EA
:100F7A00FB007B0883120313AD002D080A128A11A5
:100F8A0096250A128A118312031386002E080A1262
:100F9A008A1196250A128A11831203138800772E62
:100FAA000508F900FA017A08003A0319DD2F772EAD
:100FBA007908003A03199D2E013A0319EB2E033AD8
:100FCA000319392F013A0319872F772E0A128A112A
:100FDA00002883133B30FD000530FE006530FF001A
:100FEA00313084000A128A1173250A128A11830188
:060FFA000A128A11732E99
:02400E00FB3F76
:00000001FF
